:100000000C9435000C945D000C945D000C945D0024
:100010000C945D000C945D000C945D000C945D00EC
:100020000C945D000C945D000C945D000C945D00DC
:100030000C945D000C945D000C945D000C945D00CC
:100040000C94C3010C945D000C9491010C946B0111
:100050000C945D000C945D000C945D000C945D00AC
:100060000C945D000C945D00530211241FBECFEF71
:10007000D8E0DEBFCDBF21E0A2E1B1E001C01D921A
:10008000A83BB207E1F711E0A0E0B1E0EAE1F5E05A
:1000900002C005900D92A231B107D9F710E0C5E377
:1000A000D0E004C02197FE010E948002C433D10732
:1000B000C9F70E940D020C948B020C940000FC0105
:1000C000538D448D252F30E0842F90E0821B930BBD
:1000D000541710F0CF96089501970895FC01918D63
:1000E000828D981761F0828DDF01A80FB11D5D969A
:1000F0008C91928D9F5F9F73928F90E008958FEF08
:100100009FEF0895FC01918D828D981731F0828DBB
:10011000E80FF11D858D90E008958FEF9FEF089512
:10012000FC01918D228D892F90E0805C9F4F821B76
:1001300091098F7399270895FC01848DDF01A80F21
:10014000B11DA35ABF4F2C91848D90E001968F73FF
:100150009927848FA689B7892C93A089B1898C911E
:1001600080648C93938D848D981306C00288F389E4
:10017000E02D80818F7D80830895EF92FF920F9311
:100180001F93CF93DF93EC0181E0888F9B8D8C8D43
:10019000981305C0E889F989808185FD24C0F62E71
:1001A0000B8D10E00F5F1F4F0F731127E02E8C8D0A
:1001B000E8120CC00FB607FCFACFE889F9898081F4
:1001C00085FFF5CFCE010E949C00F1CF8B8DFE0103
:1001D000E80FF11DE35AFF4FF0820B8FEA89FB898C
:1001E0008081806207C0EE89FF896083E889F98990
:1001F00080818064808381E090E0DF91CF911F91C6
:100200000F91FF90EF900895CF93DF93EC01888DCD
:100210008823C9F0EA89FB89808185FD05C0A8890A
:10022000B9898C9186FD0FC00FB607FCF5CF808190
:1002300085FFF2CFA889B9898C9185FFEDCFCE01DA
:100240000E949C00E7CFDF91CF9108958BE191E070
:100250000E94900021E0892B09F420E0822F08956C
:1002600080E090E0892B29F00E94260181110C94F6
:1002700000000895CF92DF92EF92FF920F931F93A9
:10028000CF93DF936C017A018B01C0E0D0E0CE15F3
:10029000DF0589F0D8016D918D01D601ED91FC91BA
:1002A0000190F081E02DC6010995892B11F47E01A2
:1002B00002C02196ECCFC701DF91CF911F910F9122
:1002C000FF90EF90DF90CF90089580E090E0089548
:1002D00008950E9486021F920F920FB60F9211246A
:1002E0002F933F934F935F936F937F938F939F933E
:1002F000AF93BF93EF93FF938BE191E00E949C003B
:10030000FF91EF91BF91AF919F918F917F916F91ED
:100310005F914F913F912F910F900FBE0F901F90C3
:1003200018951F920F920FB60F9211242F938F934F
:100330009F93EF93FF93E0912B01F0912C0180812B
:10034000E0913101F091320182FD12C090818091E3
:1003500034018F5F8F7320913501821751F0E09146
:100360003401F0E0E55EFE4F958F8093340101C0CB
:100370008081FF91EF919F918F912F910F900FBEF0
:100380000F901F9018951F920F920FB60F92112485
:100390002F933F938F939F93AF93BF9380911701B8
:1003A00090911801A0911901B0911A013091160194
:1003B00023E0230F2D3720F40196A11DB11D05C0A8
:1003C00026E8230F0296A11DB11D209316018093EC
:1003D000170190931801A0931901B0931A0180910D
:1003E000120190911301A0911401B0911501019691
:1003F000A11DB11D8093120190931301A0931401CC
:10040000B0931501BF91AF919F918F913F912F9123
:100410000F900FBE0F901F901895789484B582604E
:1004200084BD84B5816084BD85B5826085BD85B598
:10043000816085BD80916E00816080936E00109216
:100440008100809181008260809381008091810091
:100450008160809381008091800081608093800022
:100460008091B10084608093B1008091B000816080
:100470008093B00080917A00846080937A008091AC
:100480007A00826080937A0080917A008160809304
:100490007A0080917A00806880937A001092C1007F
:1004A0000E943001FDCFEBE1F1E01382128288EE71
:1004B00093E0A0E0B0E084839583A683B78384E0D3
:1004C00091E09183808385EC90E09587848784EC2C
:1004D00090E09787868780EC90E0918B808B81EC11
:1004E00090E0938B828B82EC90E0958B848B86ECF2
:1004F00090E0978B868B118E128E138E148E08953A
:10050000EE0FFF1F0590F491E02D099481E090E03B
:0A051000F8940C948B02F894FFCFCE
:10051A0000000000BD003A015F00040190006E0077
:02052A0082004D
:00000001FF
