:100000000C946B010C9493010C9493010C94840454
:100010000C9484040C9484040C9493010C94930128
:100020000C9493010C9493010C9493010C94930100
:100030000C9493010C9493010C9493010C949301F0
:100040000C943A040C9493010C9442030C941C03FA
:100050000C9493010C9493010C9493010C949301D0
:100060000C9493010C9493012F002F004F7074692E
:100070006F6E506F77657220284845582F4445436E
:100080002F42494E29202020202020203A20002FD6
:10009000002F004F7074696F6E4645432028484515
:1000A000582F4445432F42494E292020202020200C
:1000B0002020203A20002F002F004F7074696F6EAF
:1000C00057616B65757020284845582F4445432F6C
:1000D00042494E292020202020203A20002F002FA6
:1000E000004F7074696F6E50756C6C757020284885
:1000F00045582F4445432F42494E29202020202097
:10010000203A20002F002F004F7074696F6E5472D8
:10011000616E7320284845582F4445432F42494E6D
:1001200029202020202020203A20002F002F0053BB
:1001300070656564416972446174615261746520DF
:10014000284845582F4445432F42494E2920203AFC
:1001500020002F002F0053706565645541525444B0
:100160006174615261746520284845582F444543A5
:100170002F42494E29203A20002F002F005370654E
:1001800065645061726974794269742028484558E1
:100190002F4445432F42494E29202020203A200059
:1001A00020002F002F004164647220284845582FFA
:1001B0004445432F42494E293A20002F002F004F3B
:1001C00070746E20284845582F4445432F42494EAD
:1001D000293A20002F002F004368616E20284845EF
:1001E000582F4445432F42494E293A20002F002FD3
:1001F000005370656420284845582F4445432F42DA
:10020000494E293A20002F002F004164644C2028D9
:100210004845582F4445432F42494E293A20002F44
:10022000002F004164644820284845582F44454326
:100230002F42494E293A20002F002F004D6F646550
:1002400020284845582F4445432F42494E293A20FB
:100250000020004665617475726573203A2000566F
:10026000657273696F6E20203A20004D6F64656C73
:10027000206E6F2E3A200000000000240027002A84
:100280000000000008000201000003040700000055
:10029000000000000000000000250028002B0000E6
:1002A00000000023002600290004040404040404C0
:1002B0000402020202020203030303030301020415
:1002C00008102040800102040810200102040810D8
:1002D0002000230E190E11241FBECFEFD8E0DEBF81
:1002E000CDBF11E0A0E0B1E0E0E1F0E202C0059096
:1002F0000D92A83AB107D9F723E0A8EAB1E001C00E
:100300001D92A333B207E1F711E0CAE6D1E004C0C1
:100310002197FE010E94F00FC936D107C9F70E944C
:1003200001080C94FB0F0C940000FC01538D448DCC
:10033000252F30E0842F90E0821B930B541710F090
:10034000CF96089501970895FC01918D828D98179D
:1003500061F0828DDF01A80FB11D5D968C91928DA9
:100360009F5F9F73928F90E008958FEF9FEF0895A6
:10037000FC01918D828D981731F0828DE80FF11D6F
:10038000858D90E008958FEF9FEF0895FC01918D8A
:10039000228D892F90E0805C9F4F821B91098F7383
:1003A000992708958AE092E00E94C60121E0892BF6
:1003B00009F420E0822F0895FC01848DDF01A80F4D
:1003C000B11DA35ABF4F2C91848D90E001968F737D
:1003D0009927848FA689B7892C93A089B1898C919C
:1003E00080648C93938D848D981306C00288F38962
:1003F000E02D80818F7D80830895EF92FF920F938F
:100400001F93CF93DF93EC0181E0888F9B8D8C8DC0
:10041000981305C0E889F989808185FD24C0F62EEE
:100420000B8D10E00F5F1F4F0F731127E02E8C8D87
:10043000E8120CC00FB607FCFACFE889F989808171
:1004400085FFF5CFCE010E94DC01F1CF8B8DFE013F
:10045000E80FF11DE35AFF4FF0820B8FEA89FB8909
:100460008081806207C0EE89FF896083E889F9890D
:1004700080818064808381E090E0DF91CF911F9143
:100480000F91FF90EF900895CF93DF93EC01888D4B
:100490008823C9F0EA89FB89808185FD05C0A88988
:1004A000B9898C9186FD0FC00FB607FCF5CF80810E
:1004B00085FFF2CFA889B9898C9185FFEDCFCE0158
:1004C0000E94DC01E7CFDF91CF91089580E090E0BA
:1004D000892B29F00E94D20181110C94000008950B
:1004E0002091AA013091AB012817390771F490913E
:1004F000A8018091A901981741F0E091A801F0E0CE
:10050000EF53FE4F808190E008958FEF9FEF0895A5
:1005100008951F93CF93DF93DC015C962D913C915E
:100520005D972115310539F481E090E013969C9395
:100530008E9312973DC05196ED91FC915297509633
:100540009C915097892F80951FB75E964C915E972E
:1005500041FB772770F941FD6095F894408177233E
:1005600011F0492B01C048234083E9012197F1F79D
:1005700048E0508160FF02C0592B01C058235083CE
:10058000E9012197F1F76695415099F7772321F01A
:1005900090818923808303C08081982B90831FBF23
:1005A0005C968D919C915D970197F1F721E030E089
:1005B000C901DF91CF911F9108952091AA01309137
:1005C000AB012817390771F48091A9012091A80186
:1005D00090E0805C9F4F821B910960E470E00E9474
:1005E000C80F089580E090E008952091AA0130910D
:1005F000AB0128173907B9F49091A8018091A9019E
:10060000981789F0E091A801F0E0EF53FE4F808148
:100610002091A80130E02F5F3F4F2F7333272093A5
:10062000A80190E008958FEF9FEF0895089580E06E
:1006300090E008950E94F60F1F920F920FB60F924E
:1006400011242F933F934F935F936F937F938F93D7
:100650009F93AF93BF93EF93FF938AE092E00E9442
:10066000DC01FF91EF91BF91AF919F918F917F91AD
:100670006F915F914F913F912F910F900FBE0F900F
:100680001F9018951F920F920FB60F9211242F935F
:100690008F939F93EF93FF93E0911A02F0911B02C7
:1006A0008081E0912002F091210282FD12C09081B0
:1006B000809123028F5F8F7320912402821751F063
:1006C000E0912302F0E0E65FFD4F958F80932302D7
:1006D00001C08081FF91EF919F918F912F910F9099
:1006E0000FBE0F901F901895833081F028F4813051
:1006F00099F08230A1F008958730A9F08830B9F0E0
:100700008430D1F4809180008F7D03C0809180007F
:100710008F7780938000089584B58F7702C084B569
:100720008F7D84BD08958091B0008F7703C0809144
:10073000B0008F7D8093B00008951F93CF93DF9317
:10074000282F30E0F901EF57FD4F8491F901E35470
:10075000FD4FD491F901E755FD4FC491CC23C9F069
:10076000162F81110E947403EC2FF0E0EE0FFF1F93
:10077000EB56FD4FA591B4918FB7F894111105C0B8
:100780009C91ED2FE095E92302C0EC91ED2BEC93C9
:100790008FBFDF91CF911F910895CF93DF9390E0AA
:1007A000FC01E354FD4F2491FC01E755FD4F84917A
:1007B000882361F190E0880F991FFC01E958FD4FF3
:1007C000C591D491FC01EB56FD4FA591B4916111F7
:1007D00009C09FB7F8948881209582238883EC9183
:1007E0002E230BC0623061F49FB7F8943881822FBA
:1007F000809583238883EC912E2B2C939FBF06C07A
:100800008FB7F894E8812E2B28838FBFDF91CF918B
:1008100008953FB7F8948091060290910702A09145
:100820000802B091090226B5A89B05C02F3F19F018
:100830000196A11DB11D3FBFBA2FA92F982F882760
:10084000820F911DA11DB11DBC01CD0142E0660FBB
:10085000771F881F991F4A95D1F708952FB7F894ED
:10086000609102027091030280910402909105024E
:100870002FBF08951F920F920FB60F9211242F933E
:100880003F938F939F93AF93BF9380910202909178
:100890000302A0910402B09105023091010223E00D
:1008A000230F2D3720F40196A11DB11D05C026E8A8
:1008B000230F0296A11DB11D209301028093020215
:1008C00090930302A0930402B09305028091060264
:1008D00090910702A0910802B09109020196A11D12
:1008E000B11D8093060290930702A0930802B09373
:1008F0000902BF91AF919F918F913F912F910F90DE
:100900000FBE0F901F9018951F920F920FB60F9267
:1009100011242F933F934F935F936F937F938F9304
:100920009F93AF93BF93EF93FF93E091AA01F09150
:10093000AB01309709F451C0968DA685B7858585A2
:1009400091FF04C09C91892329F447C09C9189237D
:1009500009F043C0A389B4899C9185898095892336
:100960008C93868997890197F1F7608D718DA685A3
:10097000B785558538E020E0CB010197F1F7822F4C
:1009800090E095958795282F4C91452309F0206894
:10099000315091F7868D81FD20958091A90190E0DD
:1009A00001968F7399273091A801381749F0A091CB
:1009B000A901B0E0AF53BE4F2C938093A90103C0AF
:1009C000868D8160868F828D938D0197F1F7A38943
:1009D000B4899C918589892B8C93FF91EF91BF916C
:1009E000AF919F918F917F916F915F914F913F91C7
:1009F0002F910F900FBE0F901F901895E091AA01B4
:100A0000F091AB01E817F90769F4A389B4899C91C7
:100A10008589809589238C931092AB011092AA014D
:100A200081E0089580E00895CF92DF92EF92FF92E7
:100A30000F931F93CF93DF936C017A018B01C0E07A
:100A4000D0E0CE15DF0589F0D8016D918D01D6017A
:100A5000ED91FC910190F081E02DC6010995892B63
:100A600011F47E0102C02196ECCFC701DF91CF9136
:100A70001F910F91FF90EF90DF90CF9008958F928C
:100A80009F92AF92BF92CF92DF92EF92FF924B0173
:100A90005C010E942E046B017C01DC01CB01880DFE
:100AA000991DAA1DBB1D892B8A2B8B2B19F4C12CD8
:100AB000D12C76010E942E04DC01CB018C199D09FA
:100AC000AE09BF0988159905AA05BB0598F3FF90E3
:100AD000EF90DF90CF90BF90AF909F908F90089550
:100AE000EAE0F2E0A089B18982E08C93A485B58523
:100AF0001C92A685B78580E18C93108EA489B58958
:100B000086E08C93A289B3898C9180618C93A289B1
:100B1000B3898C9188608C93A289B3898C91806809
:100B20008C930288F389E02D80818F7D80830895E6
:100B30000F931F93CF93DF938C01C0E0D0E0F801B7
:100B4000EC0FFD1F6491662371F0E0910A02F091B1
:100B50000B020190F081E02D8AE092E00995892B4B
:100B600011F02196ECCFCE01DF91CF911F910F9123
:100B700008958F929F92AF92BF92CF92DF92EF92A1
:100B8000FF92CF93DF934B015C010E942E046B0117
:100B90007C01DC01CB01880D991DAA1DBB1D892B91
:100BA0008A2B8B2B19F4C12CD12C76012091F502C4
:100BB00030E0F901EF57FD4F8491F901E354FD4F07
:100BC000D491F901E755FD4FC491CC23F1F0811187
:100BD0000E947403EC2FF0E0EE0FFF1FE156FD4F73
:100BE000A591B491EC91DE2381F064E170E080E0A6
:100BF00090E0DF91CF91FF90EF90DF90CF90BF908A
:100C0000AF909F908F900C943F050E942E04DC01C2
:100C1000CB018C199D09AE09BF0988169906AA0651
:100C2000BB0608F0C3CFE1CFCF93C82F68E270E0D6
:100C300080E090E00E943F05C11102C060E003C067
:100C4000C13039F461E08091F3020E949D0360E0BD
:100C50000CC0C23011F460E003C0C33051F461E055
:100C60008091F3020E949D0361E08091F4020E9452
:100C70009D0368E270E080E090E00E943F0568EE2E
:100C800073E080E090E0CF910C94B9058F929F9231
:100C9000AF92BF92CF92DF92EF92FF920F931F938A
:100CA000CF93DF93EC016A017B0100E010E00C15AB
:100CB0001D0559F10E942E04688779878A879B87D2
:100CC000E881F9810284F385E02DCE01099597FF33
:100CD00016C00E942E0488849984AA84BB84DC01F7
:100CE000CB0188199909AA09BB098C809D80AE8027
:100CF000BF8088159905AA05BB0510F306C0F7014A
:100D000081937F010F5F1F4FD2CFC801DF91CF9139
:100D10001F910F91FF90EF90DF90CF90BF90AF9019
:100D20009F908F9008951092F6021092F702109201
:100D3000F8021092F9021092FA021092FB0283E07C
:100D40000E9414068091EF029091F002DC01ED9177
:100D5000FC910190F081E02D61EC09958091EF020A
:100D60009091F002DC01ED91FC910190F081E02D79
:100D700061EC09958091EF029091F002DC01ED9118
:100D8000FC910190F081E02D61EC099546E050E086
:100D900066EF72E08091EF029091F0020E944606A9
:100DA0008091F6028093FC024091F7024093FD028D
:100DB0002091F8022093FE029091F9029093FF0295
:100DC0008091FA02809300038091FB0280930103DB
:100DD00030E0342B30930B0320930A03292F229504
:100DE00026952695237020930203292F287330E03F
:100DF00043E0359527954A95E1F7209303039770D3
:100E000090930403982F991F9927991F9093050396
:100E100086FB992790F990930603282F287330E0DA
:100E200053E0359527955A95E1F720930703282F2E
:100E3000277030E035952795359527952093080341
:100E400083708093090380E00E94140681E09091F2
:100E5000F602903C09F080E008956115710579F083
:100E6000FB0101900020E9F73197AF01461B570BBA
:100E7000DC01ED91FC910280F381E02D099480E08A
:100E800090E0089567E371E08AE092E00C942D070A
:100E9000CF93DF93BC018AE092E00E942D07EC0122
:100EA0000E9442078C0F9D1FDF91CF9108954F92B2
:100EB0005F926F927F92EF92FF920F931F93CF9367
:100EC000DF93CDB7DEB7A1970FB6F894DEBF0FBEA4
:100ED000CDBF7C01FA01CB0119A2223008F42AE02F
:100EE0008E010F5D1F4F422E512C612C712CBF01C2
:100EF000A30192010E94650FF901CA010150110975
:100F00006A3014F4605D01C0695CD8016C93232BD6
:100F1000242B252B61F7B801C7010E942D07A1964C
:100F20000FB6F894DEBF0FBECDBFDF91CF911F91FA
:100F30000F91FF90EF907F906F905F904F9008958A
:100F4000CF92DF92EF92FF92CF93DF936C01990FD4
:100F5000EE08FF08F7FE21C0E0910A02F0910B02B3
:100F60000190F081E02D6DE28AE092E00995EC01BC
:100F700044275527BA014C195D096E097F092AE0FB
:100F80008AE092E00E9457078C0F9D1FDF91CF915E
:100F9000FF90EF90DF90CF9008952AE0B701A6016F
:100FA0008AE092E0DF91CF91FF90EF90DF90CF90B9
:100FB0000C9457072115310541F4DC01ED91FC91AA
:100FC0000190F081E02D642F09940C945707CF9382
:100FD000DF939B01482F50E060E070E08AE092E0F0
:100FE0000E94DA07EC010E9442078C0F9D1FDF91DF
:100FF000CF9108959A01462F50E060E070E00C9484
:10100000DA07789484B5826084BD84B5816084BD3C
:1010100085B5826085BD85B5816085BD80916E0096
:10102000816080936E0010928100809181008260C7
:101030008093810080918100816080938100809104
:1010400080008160809380008091B10084608093F3
:10105000B1008091B00081608093B00080917A00EF
:10106000846080937A0080917A00826080937A0015
:1010700080917A00816080937A0080917A00806804
:1010800080937A001092C1001092EB021092EC0251
:101090001092ED021092EE021092A9021092AA0292
:1010A0001092AB021092AC020E942E046B017C01E4
:1010B0004B015C0128EB820E2BE0921EA11CB11C9F
:1010C0000E942E046C157D058E059F0528F086165E
:1010D0009706A806B906A0F78AE092E09093EA0284
:1010E0008093E9020E9470050E942E046093A90279
:1010F0007093AA028093AB029093AC0268E271E015
:101100008091E9029091EA020E942D070E942E042C
:101110006B017C014B015C013AE0830E911CA11C28
:10112000B11C0E942E046C157D058E059F0528F0CC
:1011300086169706A806B906A0F781E08093BD023F
:1011400061E08DE00E94CD0361E08AE00E94CD0362
:1011500061E08BE00E94CD030E94700510922F0386
:1011600010922E0310922D0310922C0310922B0339
:1011700010922A038DE991E090933103809330031C
:1011800090912003963108F057C02DEB30E030935A
:101190002B0320932A032BE931E030932D03209376
:1011A0002C032CE231E030932F0320932E03209167
:1011B0006800983050F031E09E3008F430E081E073
:1011C00001C0880F3A95EAF701C084E0822B809332
:1011D0006800983038F09E3040F0963148F020E0BA
:1011E00030E008C02DE630E005C02BE630E002C05C
:1011F0002CE630E03093280320932703983030F416
:1012000081E001C0880F9A95EAF70EC0292F30E0DF
:101210009E3018F42850310902C02E50310981E067
:1012200001C0880F2A95EAF7809329038091300343
:10123000909131030197F1F780912E0390912F0344
:10124000892B21F18091AA019091AB0143E0843177
:101250009407E1F0009711F00E94FE0480913203A0
:101260008E7F809332031092A9011092A80184E12D
:1012700093E09093AB018093AA01E0912703F09152
:101280002803908180912903892B80838AE391E050
:101290000E94480760E08091F5020E94CD0361E062
:1012A0008091F3020E94CD0361E08091F4020E94DC
:1012B000CD0380E00E941406E091EF02F091F0026D
:1012C0008091100390911103A0911203B091130328
:1012D00084839583A683B7831092F6021092F70257
:1012E0001092F8021092F90283E00E941406809195
:1012F000EF029091F002DC01ED91FC910190F08100
:10130000E02D63EC09958091EF029091F002DC01F1
:10131000ED91FC910190F081E02D63EC09958091B5
:10132000EF029091F002DC01ED91FC910190F081CF
:10133000E02D63EC099546E050E066EF72E08091A5
:10134000EF029091F0020E9446068091F70280938E
:101350000C038091F80280930D038091F902809331
:101360000E0380E00E9414068091F602833C09F48B
:101370005DC41092090380910603B0E48B9F900135
:1013800011249091050340E8949FC0011124822B01
:1013900090910703A8E09A9F90011124282B909127
:1013A0000803B4E09B9FC0011124822B80930103AA
:1013B00080E00E94140683E080930303809102037F
:1013C00020E4829FC001112491E09093040389617D
:1013D0008093FF0285E08093000386E480930103FD
:1013E00083E00E94140680EC8093FC028091EF025F
:1013F0009091F002DC01ED91FC910190F081E02DE3
:1014000060EC09958091EF029091F002DC01ED9182
:10141000FC910190F081E02D6091FD020995809191
:10142000EF029091F002DC01ED91FC910190F081CE
:10143000E02D6091FE0209958091EF029091F002FB
:10144000DC01ED91FC910190F081E02D6091FF02B3
:1014500009958091EF029091F002DC01ED91FC91F1
:101460000190F081E02D6091000309958091EF02D9
:101470009091F002DC01ED91FC910190F081E02D62
:1014800060910103099564E670E080E090E00E94BD
:10149000B90580E00E9414060E9493068091FF0225
:1014A000982F929596959695937090930203282F76
:1014B000287330E093E0359527959A95E1F72093CE
:1014C000030387708093040380910103982F991F71
:1014D0009927991F9093050386FB992790F990937C
:1014E0000603282F287330E043E0359527954A9569
:1014F000E1F720930703282F277030E035952795D3
:1015000035952795209308038370809309038AE417
:1015100091E00E9448078BE692E00E94980560E106
:1015200070E080910C030E94E7078FE592E00E9433
:10153000980560E170E080910D030E94E70783E564
:1015400092E00E94980560E170E080910E030E9495
:10155000E70781E592E00E9498050E9442078CE32C
:1015600092E00E94980540E150E06091FC028AE020
:1015700092E00E94FA078AE392E00E9498054AE00E
:1015800050E06091FC028AE092E00E94FA0788E352
:1015900092E00E94980562E070E08091FC020E9457
:1015A000E70783E292E00E94980540E150E06091F5
:1015B000FD028AE092E00E94FA0781E292E00E9436
:1015C00098054AE050E06091FD028AE092E00E94B6
:1015D000FA078FE192E00E94980562E070E0809146
:1015E000FD020E94E7078AE092E00E94980540E130
:1015F00050E06091FE028AE092E00E94FA0788E0E3
:1016000092E00E9498054AE050E06091FE028AE074
:1016100092E00E94FA0786E092E00E94980562E05C
:1016200070E08091FE020E94E70781EF91E00E9446
:10163000980540E150E06091FF028AE092E00E944C
:10164000FA078FEE91E00E9498054AE050E0609121
:10165000FF028AE092E00E94FA078DEE91E00E947C
:10166000980562E070E08091FF020E94E70788ED34
:1016700091E00E94980540E150E0609100038AE00B
:1016800092E00E94FA0786ED91E00E9498054AE0F8
:1016900050E0609100038AE092E00E94FA0784ED36
:1016A00091E00E94980562E070E0809100030E9442
:1016B000E7078FEB91E00E94980540E150E06091D0
:1016C00001038AE092E00E94FA078DEB91E00E940C
:1016D00098054AE050E0609101038AE092E00E94A0
:1016E000FA078BEB91E00E94980562E070E0809130
:1016F00001030E94E70786EA91E00E949805409165
:101700000A0350910B0360E070E020E18AE092E070
:101710000E94570784EA91E00E94980540910A03CD
:1017200050910B0360E070E02AE08AE092E00E94B2
:10173000570782EA91E00E94980540910A03509170
:101740000B0360E070E022E08AE092E00E9457071D
:101750000E94420780EA91E00E9498050E94420799
:101760008DE791E00E94980540E150E0609102030E
:101770008AE092E00E94FA078BE791E00E949805C8
:101780004AE050E0609102038AE092E00E94FA078A
:1017900089E791E00E94980562E070E08091020381
:1017A0000E94E70786E591E00E94980540E150E03D
:1017B000609103038AE092E00E94FA0784E591E0D9
:1017C0000E9498054AE050E0609103038AE092E0AD
:1017D0000E94FA0782E591E00E94980562E070E0BD
:1017E000809103030E94E7078FE291E00E94980531
:1017F00040E150E0609104038AE092E00E94FA0721
:101800008DE291E00E9498054AE050E06091040367
:101810008AE092E00E94FA078BE291E00E9498052C
:1018200062E070E0809104030E94E70788E091E0A5
:101830000E94980540E150E0609105038AE092E043
:101840000E94FA0786E091E00E9498054AE050E085
:10185000609105038AE092E00E94FA0784E091E03B
:101860000E94980562E070E0809105030E94E707FE
:1018700081EE90E00E94980540E150E060910603FF
:101880008AE092E00E94FA078FED90E00E949805AE
:101890004AE050E0609106038AE092E00E94FA0775
:1018A0008DED90E00E94980562E070E08091060363
:1018B0000E94E7078AEB90E00E94980540E150E023
:1018C000609107038AE092E00E94FA0788EB90E0BB
:1018D0000E9498054AE050E0609107038AE092E098
:1018E0000E94FA0786EB90E00E94980562E070E0A3
:1018F000809107030E94E70783E990E00E94980522
:1019000040E150E0609108038AE092E00E94FA070B
:1019100081E990E00E9498054AE050E06091080358
:101920008AE092E00E94FA078FE890E00E94980512
:1019300062E070E0809108030E94E7078CE690E087
:101940000E94980540E150E0609109038AE092E02E
:101950000E94FA078AE690E00E9498054AE050E06B
:10196000609109038AE092E00E94FA0788E690E01D
:101970000E94980562E070E0809109030E94E707E9
:101980008AE491E00E9448078FEF9FEF9093B201A5
:101990008093B1019093B4018093B3019093BA0105
:1019A0008093B9019093BC018093BB0161E1462E05
:1019B00067E2562E612C712CC1E00E942E04C0906B
:1019C000BD01D090BE01E090BF01F090C001DC01EC
:1019D000CB018C199D09AE09BF09803D9740A10537
:1019E000B10508F444C00E94570FA30192010E9460
:1019F000870F7093BA016093B9018091EF029091C3
:101A0000F002DC01ED91FC910280F381E02D44E0D5
:101A100050E069EB71E0099580930F0368EE73E085
:101A200080E090E00E94B905E090B901F090BA0121
:101A300063E771E08AE092E00E942D07C7010E94EF
:101A4000A0070E9442070E942E046093B501709384
:101A5000B6018093B7019093B8010E942E04609361
:101A6000BD017093BE018093BF019093C00184E1DA
:101A700093E00E94DD02892BC1F144E050E061EB6C
:101A800071E08091EF029091F0020E9446068093EF
:101A90000F0368EE73E080E090E00E94B9050E94B9
:101AA0002E046093AD017093AE018093AF019093CB
:101AB000B001E090B101F090B201C090B301D090BC
:101AC000B4016DE771E08AE092E00E942D07C60143
:101AD0000E94A00765E871E08AE092E00E942D076D
:101AE000C7010E94A007C093AC018091AD01909105
:101AF000AE01A091AF01B091B0014091B5015091FC
:101B0000B6016091B7017091B801841B950BA60BCB
:101B1000B70B88309740A105B10508F04AC0809105
:101B2000AC01882309F47FC01092AC012091B3016D
:101B30003091B4018091B9019091BA012817390709
:101B400009F071C061E08DE00E949D0361E08AE0D0
:101B50000E949D0360E08BE00E949D036FE871E0AE
:101B60008AE092E00E942D07C090AD01D090AE01B6
:101B7000E090AF01F090B0018091B5019091B60175
:101B8000A091B701B091B801C81AD90AEA0AFB0AB4
:101B900064E971E08AE092E00E942D072AE030E0DB
:101BA000B701A6018AE092E00E94DA070E9442078C
:101BB0003AC060E08DE00E949D0360E08AE00E94F0
:101BC0009D0361E08BE00E949D036FE971E08AE074
:101BD00092E00E942D070E9442070E9409044B01D7
:101BE0005C018AE0C82ED12CE12CF12C0E94090462
:101BF000DC01CB0188199909AA09BB09883E9340E9
:101C0000A105B10558F031E0C31AD108E108F10887
:101C100048EE840E43E0941EA11CB11CC114D104F3
:101C2000E104F10419F70E946602C7CE0E949306F0
:101C3000A0CB8AE191E0909315038093140384E193
:101C400093E00C94FE0410920D0210920C0288EEA8
:101C500093E0A0E0B0E080930E0290930F02A09377
:101C60001002B093110228E031E030930B02209370
:101C70000A0225EC30E0309317022093160224EC80
:101C800030E0309319022093180220EC30E03093BA
:101C90001B0220931A0221EC30E030931D022093A6
:101CA0001C0222EC30E030931F0220931E0226EC2F
:101CB00030E03093210220932002109223021092F0
:101CC000240210922502109226021092AD02109268
:101CD000AE021092AF021092B0021092B1021092B6
:101CE000B2021092B3021092B4021092B502109296
:101CF000B6021092B7021092B8021092B902109276
:101D0000BA021092BB021092BC02109217031092FA
:101D100016038093180390931903A0931A03B093AA
:101D20001B038AE191E090931503809314031092B2
:101D30002B0310922A0310922D0310922C03109261
:101D40002F0310922E0310923103109230036091F2
:101D500032036E7F6D7F609332036695617081E020
:101D6000682783E00E949D0361E083E00E94CD0329
:101D7000E0ECF2E0E491E0932403ECEAF2E0E49199
:101D8000F0E0EE0FFF1FEB56FD4F8591949190937D
:101D900026038093250360E082E00E94CD038091BA
:101DA000320381FD04C061E082E00E949D0382E075
:101DB00080932003EFEBF2E0E491E0932103EBEA60
:101DC000F2E0E491F0E0EE0FFF1FE156FD4F859148
:101DD0009491909323038093220384E193E0909362
:101DE000F0028093EF0284E08093F30285E0809319
:101DF000F40286E08093F50288EE93E0A0E0B0E084
:101E00008093100390931103A0931203B0931303D4
:101E100008958F929F92AF92BF92CF92DF92EF92EE
:101E2000FF92CF93DF93EC01688179818A819B8156
:101E3000611571058105910521F464E279ED8BE569
:101E400097E02DE133EF41E050E00E94870F490118
:101E50005A019B01AC01A7EAB1E40E94A60F6B01F5
:101E60007C01ACEEB4EFA50194010E94B40FDC013B
:101E7000CB018C0D9D1DAE1DBF1DB7FF03C001978B
:101E8000A109B04888839983AA83BB83BC01CD0193
:101E90009F77DF91CF91FF90EF90DF90CF90BF9031
:101EA000AF909F908F9008950E94090F089580E051
:101EB00091E00E94090F0895609300017093010161
:101EC00080930201909303010895A1E21A2EAA1BA8
:101ED000BB1BFD010DC0AA1FBB1FEE1FFF1FA217DA
:101EE000B307E407F50720F0A21BB30BE40BF50BD7
:101EF000661F771F881F991F1A9469F76095709560
:101F0000809590959B01AC01BD01CF010895052EF0
:101F100097FB1EF400940E949E0F57FD07D00E946D
:101F2000650F07FC03D04EF40C949E0F509540951E
:101F3000309521953F4F4F4F5F4F08959095809575
:101F4000709561957F4F8F4F9F4F08950E94B90FF5
:101F5000A59F900DB49F900DA49F800D911D1124FD
:101F60000895B7FF0C94A60F0E94A60F821B930B37
:101F70000895A29FB001B39FC001A39F700D811D62
:101F80001124911DB29F700D811D1124911D089582
:101F900097FB072E16F4009407D077FD09D00E9416
:101FA000DC0F07FC05D03EF4909581959F4F089576
:101FB000709561957F4F0895AA1BBB1B51E107C027
:101FC000AA1FBB1FA617B70710F0A61BB70B881FC9
:101FD000991F5A95A9F780959095BC01CD01089558
:101FE000EE0FFF1F0590F491E02D099481E090E041
:101FF000F8940C94FB0F11E0CAE6D1E004C0FE0196
:102000000E94F00F2196CB36D107C9F7F894FFCF85
:102010000100000000000000FD01140595014402CC
:10202000C601A401B80100000000890214051703CD
:102030008802DD02F5027002564D4450565F317C35
:10204000315F564D4450560D0A00537461727469E5
:102050006E672053656E646572002D2D2D2D2D2D1C
:102060002D2D2D2D2D2D2D2D2D2D2D2D2D2D2D2DA0
:102070002D2D2D2D2D2D2D2D2D2D2D2D2D2D2D2D90
:102080002D2D0053656E64696E673A2000467265B7
:102090006D643A20002009456967656E3A200009A1
:1020A000475554000941697274696D653A200054BE
:0820B000494D454F5554000055
:00000001FF
