:100000000C946B010C9493010C9493010C94750463
:100010000C9475040C9475040C9493010C94930146
:100020000C9493010C9493010C9493010C94930100
:100030000C9493010C9493010C9493010C949301F0
:100040000C942B040C9493010C9458030C943203DD
:100050000C9493010C9493010C9493010C949301D0
:100060000C9493010C9493010000000024002700DD
:100070002A002F002F004F7074696F6E506F7765E4
:100080007220284845582F4445432F42494E292085
:100090002020202020203A20002F002F004F7074B5
:1000A000696F6E46454320284845582F4445432FE5
:1000B00042494E292020202020202020203A2000C4
:1000C0002F002F004F7074696F6E57616B657570EC
:1000D00020284845582F4445432F42494E29202087
:1000E000202020203A20002F002F004F7074696FCD
:1000F0006E50756C6C757020284845582F444543E8
:100100002F42494E292020202020203A20002F0075
:100110002F004F7074696F6E5472616E732028489F
:1001200045582F4445432F42494E29202020202066
:1001300020203A20002F002F00537065656441692C
:1001400072446174615261746520284845582F4497
:1001500045432F42494E2920203A20002F002F00EE
:1001600053706565645541525444617461526174C1
:100170006520284845582F4445432F42494E2920A1
:100180003A20002F002F005370656564506172693A
:10019000747942697420284845582F4445432F42BA
:1001A000494E29202020203A200020002F002F0037
:1001B0004164647220284845582F4445432F4249E2
:1001C0004E293A20002F002F004F70746E202848CF
:1001D00045582F4445432F42494E293A20002F00CD
:1001E0002F004368616E20284845582F4445432F0F
:1001F00042494E293A20002F002F00537065642099
:10020000284845582F4445432F42494E293A20005B
:100210002F002F004164644C20284845582F444546
:10022000432F42494E293A20002F002F0041646499
:100230004820284845582F4445432F42494E293AE3
:1002400020002F002F004D6F646520284845582F4F
:100250004445432F42494E293A200020004665611B
:100260007475726573203A200056657273696F6EFB
:1002700020203A20004D6F64656C206E6F2E3A206E
:100280000000000008000201000003040700000055
:10029000000000000000000000250028002B0000E6
:1002A00000000023002600290004040404040404C0
:1002B0000402020202020203030303030301020415
:1002C00008102040800102040810200102040810D8
:1002D0002000380D2E0D11241FBECFEFD8E0DEBF59
:1002E000CDBF23E0A8E8B1E001C01D92A630B2075F
:1002F000E1F711E0A0E0B1E0E0E0FDE102C005902F
:100300000D92A838B107D9F711E0CAE6D1E004C0D0
:100310002197FE010E94680EC936D107C9F70E94D5
:10032000FB070C94730E0C940000FC01538D448D5C
:10033000252F30E0842F90E0821B930B541710F090
:10034000CF96089501970895FC01918D828D98179D
:1003500061F0828DDF01A80FB11D5D968C91928DA9
:100360009F5F9F73928F90E008958FEF9FEF0895A6
:10037000FC01918D828D981731F0828DE80FF11D6F
:10038000858D90E008958FEF9FEF0895FC01918D8A
:10039000228D892F90E0805C9F4F821B91098F7383
:1003A000992708958DED91E00E94C60121E0892BE7
:1003B00009F420E0822F0895FC01848DDF01A80F4D
:1003C000B11DA35ABF4F2C91848D90E001968F737D
:1003D0009927848FA689B7892C93A089B1898C919C
:1003E00080648C93938D848D981306C00288F38962
:1003F000E02D80818F7D80830895EF92FF920F938F
:100400001F93CF93DF93EC0181E0888F9B8D8C8DC0
:10041000981305C0E889F989808185FD24C0F62EEE
:100420000B8D10E00F5F1F4F0F731127E02E8C8D87
:10043000E8120CC00FB607FCFACFE889F989808171
:1004400085FFF5CFCE010E94DC01F1CF8B8DFE013F
:10045000E80FF11DE35AFF4FF0820B8FEA89FB8909
:100460008081806207C0EE89FF896083E889F9890D
:1004700080818064808381E090E0DF91CF911F9143
:100480000F91FF90EF900895CF93DF93EC01888D4B
:100490008823C9F0EA89FB89808185FD05C0A88988
:1004A000B9898C9186FD0FC00FB607FCF5CF80810E
:1004B00085FFF2CFA889B9898C9185FFEDCFCE0158
:1004C0000E94DC01E7CFDF91CF91089580E090E0BA
:1004D000892B29F00E94D20181110C94000008950B
:1004E0002091D3013091D4012817390771F49091EC
:1004F000D1018091D201981741F0E091D101F0E053
:10050000E857FE4F808190E008958FEF9FEF0895A8
:1005100008951F93CF93DF93DC015C962D913C915E
:100520005D972115310539F481E090E013969C9395
:100530008E9312973DC05196ED91FC915297509633
:100540009C915097892F80951FB75E964C915E972E
:1005500041FB772770F941FD6095F894408177233E
:1005600011F0492B01C048234083E9012197F1F79D
:1005700048E0508160FF02C0592B01C058235083CE
:10058000E9012197F1F76695415099F7772321F01A
:1005900090818923808303C08081982B90831FBF23
:1005A0005C968D919C915D970197F1F721E030E089
:1005B000C901DF91CF911F9108952091D30130910E
:1005C000D4012817390771F48091D2012091D1010B
:1005D00090E0805C9F4F821B910960E470E00E9474
:1005E000400E089580E090E008952091D30130916D
:1005F000D40128173907B9F49091D1018091D20123
:10060000981789F0E091D101F0E0E857FE4F808122
:100610002091D10130E02F5F3F4F2F73332720937C
:10062000D10190E008958FEF9FEF0895E091D301FD
:10063000F091D401E817F90769F4A389B4899C9172
:100640008589809589238C931092D4011092D301CF
:1006500081E0089580E00895089580E090E0089595
:100660000E946E0E1F920F920FB60F9211242F93BD
:100670003F934F935F936F937F938F939F93AF932A
:10068000BF93EF93FF938DED91E00E94DC01FF910A
:10069000EF91BF91AF919F918F917F916F915F91FA
:1006A0004F913F912F910F900FBE0F901F90189573
:1006B0001F920F920FB60F9211242F938F939F9337
:1006C000EF93FF93E091ED01F091EE018081E091D5
:1006D000F301F091F40182FD12C090818091F60146
:1006E0008F5F8F732091F701821751F0E091F6012F
:1006F000F0E0E352FE4F958F8093F60101C08081B8
:10070000FF91EF919F918F912F910F900FBE0F90BE
:100710001F901895833081F028F4813099F0823051
:10072000A1F008958730A9F08830B9F08430D1F471
:10073000809180008F7D03C0809180008F778093AF
:100740008000089584B58F7702C084B58F7D84BD05
:1007500008958091B0008F7703C08091B0008F7DA5
:100760008093B00008951F93CF93DF93282F30E03C
:10077000F901EF57FD4F8491F901E354FD4FD491F6
:10078000F901E755FD4FC491CC23C9F0162F811113
:100790000E948A03EC2FF0E0EE0FFF1FEB56FD4F97
:1007A000A591B4918FB7F894111105C09C91ED2FCC
:1007B000E095E92302C0EC91ED2BEC938FBFDF9124
:1007C000CF911F910895CF93DF9390E0FC01E35404
:1007D000FD4F2491FC01E755FD4F8491882361F181
:1007E00090E0880F991FFC01E859FF4FC591D49103
:1007F000FC01EB56FD4FA591B491611109C09FB763
:10080000F8948881209582238883EC912E230BC055
:10081000623061F49FB7F8943881822F80958323EA
:100820008883EC912E2B2C939FBF06C08FB7F89432
:10083000E8812E2B28838FBFDF91CF9108952FB7AA
:10084000F8946091CD017091CE018091CF0190918B
:10085000D0012FBF08951F920F920FB60F9211244F
:100860002F933F938F939F93AF93BF938091CD012D
:100870009091CE01A091CF01B091D0013091CC01E7
:1008800023E0230F2D3720F40196A11DB11D05C0D3
:1008900026E8230F0296A11DB11D2093CC01809361
:1008A000CD019093CE01A093CF01B093D001809160
:1008B000C8019091C901A091CA01B091CB010196E4
:1008C000A11DB11D8093C8019093C901A093CA01D5
:1008D000B093CB01BF91AF919F918F913F912F9199
:1008E0000F900FBE0F901F9018951F920F920FB68A
:1008F0000F9211242F933F934F935F936F937F93A6
:100900008F939F93AF93BF93EF93FF93E091D301A6
:10091000F091D401309709F451C0968DA685B78522
:10092000858591FF04C09C91892329F447C09C913F
:10093000892309F043C0A389B4899C918589809556
:1009400089238C93868997890197F1F7608D718D42
:10095000A685B785558538E020E0CB010197F1F7F2
:10096000822F90E095958795282F4C91452309F08B
:100970002068315091F7868D81FD20958091D201BC
:1009800090E001968F7399273091D101381749F083
:10099000A091D201B0E0A857BE4F2C938093D20112
:1009A00003C0868D8160868F828D938D0197F1F7CC
:1009B000A389B4899C918589892B8C93FF91EF91B0
:1009C000BF91AF919F918F917F916F915F914F9167
:1009D0003F912F910F900FBE0F901F901895CF92BF
:1009E000DF92EF92FF920F931F93CF93DF936C01EF
:1009F0007A018B01C0E0D0E0CE15DF0589F0D80187
:100A00006D918D01D601ED91FC910190F081E02D69
:100A1000C6010995892B11F47E0102C02196ECCF05
:100A2000C701DF91CF911F910F91FF90EF90DF9061
:100A3000CF9008958F929F92AF92BF92CF92DF9204
:100A4000EF92FF924B015C010E941F046B017C013D
:100A5000DC01CB01880D991DAA1DBB1D892B8A2B9A
:100A60008B2B19F4C12CD12C76010E941F04DC01C0
:100A7000CB018C199D09AE09BF0988159905AA05F6
:100A8000BB0598F3FF90EF90DF90CF90BF90AF90B1
:100A90009F908F9008958F929F92AF92BF92CF9226
:100AA000DF92EF92FF92CF93DF934B015C010E94A4
:100AB0001F046B017C01DC01CB01880D991DAA1D6F
:100AC000BB1D892B8A2B8B2B19F4C12CD12C7601C1
:100AD0002091C80230E0F901EF57FD4F8491F901F0
:100AE000E354FD4FD491F901E755FD4FC491CC2358
:100AF000F1F081110E948A03EC2FF0E0EE0FFF1F4E
:100B0000E156FD4FA591B491EC91DE2381F064E1B3
:100B100070E080E090E0DF91CF91FF90EF90DF9068
:100B2000CF90BF90AF909F908F900C941A050E9429
:100B30001F04DC01CB018C199D09AE09BF09881681
:100B40009906AA06BB0608F0C3CFE1CFEDEDF1E0B0
:100B5000A089B18982E08C93A485B5851C92A68575
:100B6000B78580E18C93108EA489B58986E08C933B
:100B7000A289B3898C9180618C93A289B3898C916D
:100B800088608C93A289B3898C9180688C93028849
:100B9000F389E02D80818F7D808308950F931F93CB
:100BA000CF93DF938C01C0E0D0E0F801EC0FFD1F84
:100BB0006491662371F0E091DD01F091DE01019016
:100BC000F081E02D8DED91E00995892B11F02196B2
:100BD000ECCFCE01DF91CF911F910F910895CF936C
:100BE000C82F68E270E080E090E00E941A05C11111
:100BF00002C060E003C0C13039F461E08091C602F8
:100C00000E94B30360E00CC0C23011F460E003C086
:100C1000C33051F461E08091C6020E94B30361E0E9
:100C20008091C7020E94B30368E270E080E090E028
:100C30000E941A0568EE73E080E090E0CF910C947A
:100C40004B05E2ECF2E0868940E8849F9001112494
:100C5000978940E4949FC0011124822B228D822B1E
:100C6000908D48E0949F90011124282B918D34E0C1
:100C7000939FC0011124822B828B08958F929F92A3
:100C8000AF92BF92CF92DF92EF92FF920F931F939A
:100C9000CF93DF93EC016A017B0100E010E00C15BB
:100CA0001D0559F10E941F04688779878A879B87F1
:100CB000E881F9810284F385E02DCE01099597FF43
:100CC00016C00E941F0488849984AA84BB84DC0116
:100CD000CB0188199909AA09BB098C809D80AE8037
:100CE000BF8088159905AA05BB0510F306C0F7015A
:100CF00081937F010F5F1F4FD2CFC801DF91CF914A
:100D00001F910F91FF90EF90DF90CF90BF90AF9029
:100D10009F908F9008951092C9021092CA0210926B
:100D2000CB021092CC021092CD021092CE0283E040
:100D30000E94EF058091C2029091C302DC01ED9107
:100D4000FC910190F081E02D61EC09958091C20247
:100D50009091C302DC01ED91FC910190F081E02DB6
:100D600061EC09958091C2029091C302DC01ED9182
:100D7000FC910190F081E02D61EC099546E050E096
:100D800069EC72E08091C2029091C3020E943E061B
:100D90008091C9028093CF024091CA024093D00251
:100DA0002091CB022093D1029091CC029093D20259
:100DB0008091CD028093D3028091CE028093D402A1
:100DC00030E0342B3093DE022093DD02292F229570
:100DD0002695269523702093D502292F287330E07D
:100DE00043E0359527954A95E1F72093D602977011
:100DF0009093D702982F991F9927991F9093D80203
:100E000086FB992790F99093D902282F287330E018
:100E100053E0359527955A95E1F72093DA02282F6C
:100E2000277030E035952795359527952093DB027F
:100E300083708093DC0280E00E94EF0581E0909156
:100E4000C902903C09F080E008956115710579F0C0
:100E5000FB0101900020E9F73197AF01461B570BCA
:100E6000DC01ED91FC910280F381E02D099480E09A
:100E700090E00895CF93DF93BC018DED91E00E9447
:100E80002507EC0163E371E08DED91E00E942507F9
:100E90008C0F9D1FDF91CF9108954F925F926F92BB
:100EA0007F92EF92FF920F931F93CF93DF93CDB773
:100EB000DEB7A1970FB6F894DEBF0FBECDBF7C01A1
:100EC000FA01CB0119A2223008F42AE08E010F5D4D
:100ED0001F4F422E512C612C712CBF01A301920196
:100EE0000E941E0EF901CA01015011096A3014F462
:100EF000605D01C0695CD8016C93232B242B252BEA
:100F000061F7B801C7010E942507A1960FB6F894B2
:100F1000DEBF0FBECDBFDF91CF911F910F91FF902C
:100F2000EF907F906F905F904F900895CF92DF92F7
:100F3000EF92FF92CF93DF936C01990FEE08FF08B9
:100F4000F7FE21C0E091DD01F091DE010190F0811A
:100F5000E02D6DE28DED91E00995EC0144275527D8
:100F6000BA014C195D096E097F092AE08DED91E007
:100F70000E944D078C0F9D1FDF91CF91FF90EF9046
:100F8000DF90CF9008952AE0B701A6018DED91E0A2
:100F9000DF91CF91FF90EF90DF90CF900C944D07B1
:100FA0002115310541F4DC01ED91FC910190F081B6
:100FB000E02D642F09940C944D07CF93DF939B0190
:100FC000482F50E060E070E08DED91E00E94D00786
:100FD000EC0163E371E08DED91E00E9425078C0F39
:100FE0009D1FDF91CF9108959A01462F50E060E058
:100FF00070E00C94D007789484B5826084BD84B589
:10100000816084BD85B5826085BD85B5816085BD03
:1010100080916E00816080936E00109281008091BB
:101020008100826080938100809181008160809343
:101030008100809180008160809380008091B10068
:1010400084608093B1008091B00081608093B00093
:1010500080917A00846080937A0080917A00826027
:1010600080937A0080917A00816080937A008091E9
:101070007A00806880937A001092C1001092BE02BC
:101080001092BF021092C0021092C10210927C0214
:1010900010927D0210927E0210927F020E941F0425
:1010A0006B017C014B015C0128EB820E2BE0921E50
:1010B000A11CB11C0E941F046C157D058E059F05A7
:1010C00028F086169706A806B906A0F78DED91E0E0
:1010D0009093BD028093BC020E94A6050E941F044B
:1010E00060937C0270937D0280937E0290937F02D6
:1010F00064E271E08091BC029091BD020E942507DC
:101100000E941F046B017C014B015C018AE0880E88
:10111000911CA11CB11C0E941F046C157D058E053D
:101120009F0528F086169706A806B906A0F781E065
:101130008093900261E08DE00E94E3030E94A60587
:101140001092020310920103109200031092FF020A
:101150001092FE021092FD028DE991E0909304033B
:10116000809303039091F302963108F057C02DEB62
:1011700030E03093FE022093FD022BE931E0309302
:1011800000032093FF022CE231E03093020320930E
:10119000010320916800983050F031E09E3008F44F
:1011A00030E081E001C0880F3A95EAF701C084E0A1
:1011B000822B80936800983038F09E3040F0963152
:1011C00048F020E030E008C02DE630E005C02BE616
:1011D00030E002C02CE630E03093FB022093FA02AC
:1011E000983030F481E001C0880F9A95EAF70EC07C
:1011F000292F30E09E3018F42850310902C02E50BB
:10120000310981E001C0880F2A95EAF78093FC023A
:1012100080910303909104030197F1F780910103FA
:1012200090910203892B21F18091D3019091D401F7
:10123000A2E0873E9A07E1F0009711F00E941603A2
:10124000809105038E7F809305031092D201109246
:10125000D10187EE92E09093D4018093D301E09185
:10126000FA02F091FB0290818091FC02892B80832D
:1012700086E391E00E943A0760E08091C8020E94F4
:10128000E30361E08091C6020E94E30361E0809184
:10129000C7020E94E30380E00E94EF05E091C202D2
:1012A000F091C3028091E3029091E402A091E502E3
:1012B000B091E60284839583A683B7831092C90216
:1012C0001092CA021092CB021092CC0283E00E94CC
:1012D000EF058091C2029091C302DC01ED91FC9177
:1012E0000190F081E02D63EC09958091C20290910C
:1012F000C302DC01ED91FC910190F081E02D63ECE3
:1013000009958091C2029091C302DC01ED91FC919C
:101310000190F081E02D63EC099546E050E069EC26
:1013200072E08091C2029091C3020E943E068091B9
:10133000CA028093DF028091CB028093E002809109
:10134000CC028093E10280E00E94EF058091C90207
:10135000833C09F480C380E00E94EF051092DA021A
:101360000E94210683E08093D6028091D502B0E4EA
:101370008B9FC001112491E09093D70289618093E3
:10138000D20286E08093D30286E48093D40282E086
:101390008093DC020E94210683E00E94EF0580EC2E
:1013A0008093CF028091C2029091C302DC01ED9143
:1013B000FC910190F081E02D60EC09958091C202D2
:1013C0009091C302DC01ED91FC910190F081E02D40
:1013D0006091D00209958091C2029091C302DC0114
:1013E000ED91FC910190F081E02D6091D102099581
:1013F0008091C2029091C302DC01ED91FC910190B9
:10140000F081E02D6091D20209958091C202909105
:10141000C302DC01ED91FC910190F081E02D60911F
:10142000D30209958091C2029091C302DC01ED9133
:10143000FC910190F081E02D6091D402099564E661
:1014400070E080E090E00E944B0580E00E94EF0594
:101450000E948B068091D202982F92959695969530
:1014600093709093D502282F287330E093E0359540
:1014700027959A95E1F72093D60287708093D7023B
:101480008091D402982F991F9927991F9093D80281
:1014900086FB992790F99093D902282F287330E082
:1014A00043E0359527954A95E1F72093DA02282FF6
:1014B000277030E035952795359527952093DB02E9
:1014C00083708093DC028BE491E00E943A0785E709
:1014D00092E00E94CE0560E170E08091DF020E9400
:1014E000DD0789E692E00E94CE0560E170E0809120
:1014F000E0020E94DD078DE592E00E94CE0560E1EA
:1015000070E08091E1020E94DD078BE592E00E948D
:10151000CE0563E371E08DED91E00E94250786E43E
:1015200092E00E94CE0540E150E06091CF028DED47
:1015300091E00E94F40784E492E00E94CE054AE024
:1015400050E06091CF028DED91E00E94F40782E4BB
:1015500092E00E94CE0562E070E08091CF020E948E
:10156000DD078DE292E00E94CE0540E150E06091FF
:10157000D0028DED91E00E94F4078BE292E00E9490
:10158000CE054AE050E06091D0028DED91E00E94DE
:10159000F40789E292E00E94CE0562E070E080915B
:1015A000D0020E94DD0784E192E00E94CE0540E176
:1015B00050E06091D1028DED91E00E94F40782E14C
:1015C00092E00E94CE054AE050E06091D1028DED9C
:1015D00091E00E94F40780E192E00E94CE0562E073
:1015E00070E08091D1020E94DD078BEF91E00E94B4
:1015F000CE0540E150E06091D2028DED91E00E9475
:10160000F40789EF91E00E94CE054AE050E0609136
:10161000D2028DED91E00E94F40787EF91E00E94E5
:10162000CE0562E070E08091D2020E94DD0782EE7A
:1016300091E00E94CE0540E150E06091D3028DED33
:1016400091E00E94F40780EE91E00E94CE054AE00E
:1016500050E06091D3028DED91E00E94F4078EED91
:1016600091E00E94CE0562E070E08091D3020E947A
:10167000DD0789EC91E00E94CE0540E150E06091E9
:10168000D4028DED91E00E94F40787EC91E00E9476
:10169000CE054AE050E06091D4028DED91E00E94C9
:1016A000F40785EC91E00E94CE0562E070E0809145
:1016B000D4020E94DD0780EB91E00E94CE054091AC
:1016C000DD025091DE0260E070E020E18DED91E0FE
:1016D0000E944D078EEA91E00E94CE054091DD0206
:1016E0005091DE0260E070E02AE08DED91E00E9412
:1016F0004D078CEA91E00E94CE054091DD025091A9
:10170000DE0260E070E022E08DED91E00E944D0786
:1017100063E371E08DED91E00E9425078AEA91E094
:101720000E94CE0563E371E08DED91E00E942507F4
:1017300087E891E00E94CE0540E150E06091D5023B
:101740008DED91E00E94F40785E891E00E94CE05BE
:101750004AE050E06091D5028DED91E00E94F407DF
:1017600083E891E00E94CE0562E070E08091D502AE
:101770000E94DD0780E691E00E94CE0540E150E046
:101780006091D6028DED91E00E94F4078EE591E024
:101790000E94CE054AE050E06091D6028DED91E0C6
:1017A0000E94F4078CE591E00E94CE0562E070E0B3
:1017B0008091D6020E94DD0789E391E00E94CE0568
:1017C00040E150E06091D7028DED91E00E94F40776
:1017D00087E391E00E94CE054AE050E06091D70295
:1017E0008DED91E00E94F40785E391E00E94CE0523
:1017F00062E070E08091D7020E94DD0782E191E013
:101800000E94CE0540E150E06091D8028DED91E05C
:101810000E94F40780E191E00E94CE054AE050E08A
:101820006091D8028DED91E00E94F4078EE091E086
:101830000E94CE0562E070E08091D8020E94DD0730
:101840008BEE90E00E94CE0540E150E06091D9021D
:101850008DED91E00E94F40789EE90E00E94CE05A4
:101860004AE050E06091D9028DED91E00E94F407CA
:1018700087EE90E00E94CE0562E070E08091D90290
:101880000E94DD0784EC90E00E94CE0540E150E02C
:101890006091DA028DED91E00E94F40782EC90E015
:1018A0000E94CE054AE050E06091DA028DED91E0B1
:1018B0000E94F40780EC90E00E94CE0562E070E0A8
:1018C0008091DA020E94DD078DE990E00E94CE054A
:1018D00040E150E06091DB028DED91E00E94F40761
:1018E0008BE990E00E94CE054AE050E06091DB0277
:1018F0008DED91E00E94F40789E990E00E94CE0509
:1019000062E070E08091DB020E94DD0786E790E0F4
:101910000E94CE0540E150E06091DC028DED91E047
:101920000E94F40784E790E00E94CE054AE050E070
:101930006091DC028DED91E00E94F40782E790E077
:101940000E94CE0562E070E08091DC020E94DD071B
:101950008BE491E00E943A078FEF9FEF9093DA01BA
:101960008093D9019093DC018093DB019093D601A1
:101970008093D5019093D8018093D70187EE92E0B0
:101980000E94DD02892B09F463C044E050E069ED58
:1019900071E08091C2029091C3020E943E06809342
:1019A000E20268EE73E080E090E00E944B05E09078
:1019B000D901F090DA01C090DB01D090DC010E94E7
:1019C0001F04AB01BC012AE030E08DED91E00E94E4
:1019D000D00764E771E08DED91E00E942507C60114
:1019E0000E9496076DE771E08DED91E00E9425075A
:1019F000C7010E94960763E371E08DED91E00E94BC
:101A000025078091DB019091DC019093D6018093B2
:101A1000D5018091D9019091DA019093D8018093FA
:101A2000D7018091C2029091C302DC01ED91FC913B
:101A30000280F381E02D44E050E065ED71E009950E
:101A40008093E20268EE73E080E090E00E944B0534
:101A50000E94660293CF0E948B067DCC86E191E0C6
:101A60009093E8028093E70287EE92E00C941603CD
:101A70001092E0011092DF0188EE93E0A0E0B0E068
:101A80008093E1019093E201A093E301B093E4011C
:101A900024E031E03093DE012093DD0125EC30E0DD
:101AA0003093EA012093E90124EC30E03093EC011B
:101AB0002093EB0120EC30E03093EE012093ED0118
:101AC00021EC30E03093F0012093EF0122EC30E084
:101AD0003093F2012093F10126EC30E03093F401D1
:101AE0002093F3011092F6011092F7011092F80181
:101AF0001092F901109280021092810210928202DB
:101B00001092830210928402109285021092860233
:101B100010928702109288021092890210928A0213
:101B200010928B0210928C0210928D0210928E02F3
:101B300010928F021092EA021092E9028093EB0257
:101B40009093EC02A093ED02B093EE0286E191E057
:101B50009093E8028093E7021092FE021092FD0239
:101B6000109200031092FF021092020310920103E0
:101B70001092040310920303609105036E7F6D7F42
:101B8000609305036695617081E0682783E00E9499
:101B9000B30361E083E00E94E303E0ECF2E0E49150
:101BA000E093F702ECEAF2E0E491F0E0EE0FFF1FC1
:101BB000EB56FD4F859194919093F9028093F80232
:101BC00060E082E00E94E3038091050381FD04C090
:101BD00061E082E00E94B30382E08093F302EFEBC6
:101BE000F2E0E491E093F402EBEAF2E0E491F0E059
:101BF000EE0FFF1FE156FD4F859194919093F602F1
:101C00008093F50287EE92E09093C3028093C20224
:101C100084E08093C60285E08093C70286E08093CB
:101C2000C80288EE93E0A0E0B0E08093E3029093D6
:101C3000E402A093E502B093E6020895A1E21A2E11
:101C4000AA1BBB1BFD010DC0AA1FBB1FEE1FFF1F60
:101C5000A217B307E407F50720F0A21BB30BE40BB0
:101C6000F50B661F771F881F991F1A9469F76095F7
:101C70007095809590959B01AC01BD01CF010895B1
:101C800097FB072E16F4009407D077FD09D00E9429
:101C9000540E07FC05D03EF4909581959F4F089512
:101CA000709561957F4F0895AA1BBB1B51E107C03A
:101CB000AA1FBB1FA617B70710F0A61BB70B881FDC
:101CC000991F5A95A9F780959095BC01CD0108956B
:101CD000EE0FFF1F0590F491E02D099481E090E054
:101CE000F8940C94730E11E0CAE6D1E004C0FE0132
:101CF0000E94680E2196CB36D107C9F7F894FFCF22
:101D000000000000FD01EF0495014402C601A4019A
:101D1000B801000000008902EF042D038802DD02F3
:101D2000F5027002564D4450565F317C315F564D7E
:101D30004450560D0A005374617274696E672045F1
:101D400063686F2D53656E646572002D2D2D2D2DEA
:101D50002D2D2D2D2D2D2D2D2D2D2D2D2D2D2D2DB3
:101D60002D2D2D2D2D2D2D2D2D2D2D2D2D2D2D2DA3
:101D70002D2D2D00094672656D643A20002009451D
:081D80006967656E3A2000005E
:00000001FF
